:020000040800F2
:1000000000000220210E0008090A00080F0A00085B
:10001000150A00081B0A0008210A00080000000059
:10002000000000000000000000000000270A000897
:10003000350A000800000000430A0008510A0008C1
:10004000190E0008190E0008190E0008190E0008F4
:10005000190E0008190E00085D0A0008190E0008A4
:10006000190E0008190E0008190E0008190E0008D4
:10007000190E0008190E0008190E0008190E0008C4
:10008000190E0008190E0008190E0008190E0008B4
:10009000190E0008190E0008190E0008190E0008A4
:1000A000190E0008190E0008190E0008190E000894
:1000B000190E0008190E0008190E0008190E000884
:1000C000190E0008190E0008190E0008190E000874
:1000D000190E0008190E0008190E00086D0A000814
:1000E000190E0008190E0008190E0008190E000854
:1000F000190E0008190E0008190E0008190E000844
:10010000190E0008190E0008190E0008190E000833
:10011000190E0008190E0008190E0008190E000823
:10012000190E0008190E0008190E0008190E000813
:10013000190E0008190E0008190E0008190E000803
:10014000190E0008190E0008190E0008190E0008F3
:10015000190E0008190E0008190E0008190E0008E3
:10016000190E0008190E0008190E0008190E0008D3
:10017000190E0008190E0008190E0008190E0008C3
:10018000190E0008190E000810B5054C237833B974
:10019000044B13B10448AFF300800123237010BD5A
:1001A000A800002000000000188F000808B5034BCD
:1001B0001BB103490348AFF3008008BD00000000F5
:1001C000AC000020188F0008A3F5803A704700BFEC
:1001D000174B002B08BF134B9D46FFF7F5FF00217F
:1001E0008B460F461348144A121A08F037FE0E4B7E
:1001F000002B00D098470D4B002B00D098470020D3
:10020000002104000D000D48002802D00C48AFF377
:10021000008008F0FFFD2000290000F0A5F908F09B
:10022000E5FD00BF00000800000000000000000025
:1002300000000000A8000020740200200000000060
:100240000000000053B94AB9002908BF00281CBFAC
:100250004FF0FF314FF0FF3000F074B9ADF1080CF2
:100260006DE904CE00F006F8DDF804E0DDE90223D4
:1002700004B070472DE9F047089D04468E46002BD8
:100280004DD18A42944669D9B2FA82F252B101FA4A
:1002900002F3C2F1200120FA01F10CFA02FC41EA5A
:1002A000030E94404FEA1C48210CBEFBF8F61FFADF
:1002B0008CF708FB16E341EA034306FB07F199427A
:1002C0000AD91CEB030306F1FF3080F01F8199422D
:1002D00040F21C81023E63445B1AA4B2B3FBF8F007
:1002E00008FB103344EA034400FB07F7A7420AD98E
:1002F0001CEB040400F1FF3380F00A81A74240F2B6
:1003000007816444023840EA0640E41B00261DB120
:10031000D4400023C5E900433146BDE8F0878B4255
:1003200009D9002D00F0EF800026C5E90001304614
:100330003146BDE8F087B3FA83F6002E4AD18B42EE
:1003400002D3824200F2F980841A61EB0303012098
:100350009E46002DE0D0C5E9004EDDE702B9FFDE84
:10036000B2FA82F2002A40F09280A1EB0C014FEA2F
:100370001C471FFA8CFE0126200CB1FBF7F307FB8C
:10038000131140EA01410EFB03F0884208D91CEB2F
:10039000010103F1FF3802D2884200F2CB804346CC
:1003A000091AA4B2B1FBF7F007FB101144EA0144AB
:1003B0000EFB00FEA64508D91CEB040400F1FF313A
:1003C00002D2A64500F2BB800846A4EB0E0440EA28
:1003D00003409CE7C6F12007B34022FA07FC4CEA31
:1003E000030C20FA07F401FA06F31C43F9404FEA24
:1003F0001C4900FA06F3B1FBF9F8200C1FFA8CFE39
:1004000009FB181140EA014108FB0EF0884202FA8C
:1004100006F20BD91CEB010108F1FF3A80F088804D
:10042000884240F28580A8F102086144091AA4B20A
:10043000B1FBF9F009FB101144EA014100FB0EFE8B
:100440008E4508D91CEB010100F1FF346CD28E45BA
:100450006AD90238614440EA0840A0FB0294A1EB4B
:100460000E01A142C846A64656D353D05DB1B3EBA8
:10047000080261EB0E0101FA07F722FA06F3F140D8
:100480001F43C5E9007100263146BDE8F087C2F17F
:100490002003D8400CFA02FC21FA03F391400143F7
:1004A0004FEA1C471FFA8CFEB3FBF7F007FB103630
:1004B0000B0C43EA064300FB0EF69E4204FA02F4DC
:1004C00008D91CEB030300F1FF382FD29E422DD92F
:1004D000023863449B1B89B2B3FBF7F607FB163364
:1004E00041EA034106FB0EF38B4208D91CEB0101E4
:1004F00006F1FF3816D28B4214D9023E6144C91A64
:1005000046EA004638E72E46284605E70646E3E673
:100510001846F8E64B45A9D2B9EB020864EB0C0E7D
:100520000138A3E74646EAE7204694E74046D1E78C
:10053000D0467BE7023B614432E7304609E764443A
:10054000023842E7704700BF80B582B000AF054B6C
:100550007B607B681B683B603B68984700BF08373F
:10056000BD4680BD0400010880B500AF00F0D0FC9E
:1005700000F01CF800F0C2F800F082F800F094F8E7
:100580000121094804F0A6FD0346012B05D10120F5
:1005900008F014FC08F0FAFB04E0062008F00EFC5A
:1005A000FFF7D2FFFEE700BF0000024080B594B025
:1005B00000AF07F1200330220021184608F04EFC5E
:1005C00007F10C0300221A605A609A60DA601A611F
:1005D0000023BB60284B1B6C274A43F080531364F5
:1005E000254B1B6C03F08053BB60BB6800237B6012
:1005F000224B1B68214A43F4804313601F4B1B6846
:1006000003F480437B607B6802233B620123FB622F
:1006100010233B630223BB630023FB6308233B647B
:1006200054237B640223BB640723FB6407F120038C
:10063000184605F029F80346002B01D000F008F910
:100640000F23FB6002233B6100237B614FF4805347
:10065000BB614FF48053FB6107F10C030221184684
:1006600005F080FA0346002B01D000F0F1F800BF3E
:100670005037BD4680BD00BF0038024000700040CA
:1006800080B500AF064B074A1A60054801F069F9CA
:100690000346002B01D000F0DBF800BF80BD00BF97
:1006A000C40000200030024080B500AF114B124A58
:1006B0001A60104B4FF4E1325A600E4B00229A60E0
:1006C0000C4B0022DA600B4B00221A61094B0C2202
:1006D0005A61084B00229A61064B0022DA610548F4
:1006E00006F062F80346002B01D000F0B1F800BF1D
:1006F00080BD00BFCC0000200048004080B588B01D
:1007000000AF07F10C0300221A605A609A60DA60A9
:100710001A610023BB604A4B1B6B494A43F001033B
:100720001363474B1B6B03F00103BB60BB680023E3
:100730007B60434B1B6B424A43F004031363404B03
:100740001B6B03F004037B607B6800233B603C4B26
:100750001B6B3B4A43F008031363394B1B6B03F0DD
:1007600008033B603B6800224FF40041354804F029
:10077000C9FC00224FF48051324804F0C3FC00222F
:100780004FF400512F4804F0BDFC00224FF480418B
:100790002C4804F0B7FC0123FB602B4B3B6100238A
:1007A0007B6107F10C031946284804F0FBF94FF46C
:1007B0000043FB6001233B6100237B610023BB619D
:1007C00007F10C0319461F4804F0ECF94FF480437D
:1007D000FB6001233B6100237B610023BB6107F1C8
:1007E0000C031946174804F0DDF94FF40053FB6081
:1007F00001233B6100237B610023BB6107F10C03F4
:100800001946104804F0CEF94FF48053FB600123E1
:100810003B6100237B610023BB6107F10C03194698
:10082000084804F0BFF900220021062000F053FF21
:10083000062000F06CFF00BF2037BD4680BD00BF22
:1008400000380240000C024000001110000002407D
:1008500080B400AF72B600BFFEE7000080B582B082
:1008600000AF00237B60104B5B6C0F4A43F4804366
:1008700053640D4B5B6C03F480437B607B68002307
:100880003B60094B1B6C084A43F080531364064BD2
:100890001B6C03F080533B603B68072000F010FFA7
:1008A00000BF0837BD4680BD0038024080B485B027
:1008B00000AF78607B681B680B4A93420DD1002320
:1008C000FB600A4B1B6B094A43F480531363074BCD
:1008D0001B6B03F48053FB60FB6800BF1437BD46FD
:1008E0005DF8047B704700BF0030024000380240D2
:1008F00080B483B000AF78607B681B68074A93427E
:1009000005D1074B1B6B064A23F48053136300BFCA
:100910000C37BD465DF8047B704700BF00300240D5
:100920000038024080B58AB000AF786007F1140348
:1009300000221A605A609A60DA601A617B681B684C
:100940001D4A934234D100233B611C4B1B6C1B4A54
:1009500043F480231364194B1B6C03F480233B6125
:100960003B690023FB60154B1B6B144A43F00403E7
:100970001363124B1B6B03F00403FB60FB684FF423
:1009800040637B610223BB610023FB6103233B6265
:1009900007237B6207F114031946094804F002F9A2
:1009A00000220021272000F096FE272000F0AFFE55
:1009B00000BF2837BD4680BD0048004000380240D7
:1009C0000008024080B582B000AF78607B681B6889
:1009D0000A4A93420DD10A4B1B6C094A23F4802327
:1009E00013644FF44061074804F078FA272000F0C0
:1009F0009CFE00BF0837BD4680BD00BF00480040D8
:100A0000003802400008024080B400AFFEE780B426
:100A100000AFFEE780B400AFFEE780B400AFFEE7B2
:100A200080B400AFFEE780B400AF00BFBD465DF804
:100A3000047B704780B400AF00BFBD465DF8047B07
:100A4000704780B400AF00BFBD465DF8047B7047BF
:100A500080B500AF00F0E8FA00BF80BD80B500AF00
:100A6000012004F0ABFB00BF80BD000080B500AFEB
:100A7000024806F085FE00BF80BD00BFCC0000200C
:100A800080B400AF00BFBD465DF8047B704780B402
:100A900000AF01231846BD465DF8047B704780B562
:100AA00082B000AF7860396008F09AF903461622E8
:100AB0001A604FF0FF3318460837BD4680BD80B539
:100AC00082B000AF78604FF0FF317868FFF7E7FF42
:100AD000FEE780B586B000AFF860B9607A600023A9
:100AE0007B610AE0AFF300800146BB685A1CBA6024
:100AF000CAB21A707B6901337B617A697B689A425A
:100B0000F0DB7B6818461837BD4680BD80B586B0DF
:100B100000AFF860B9607A6000237B6109E0BB68D0
:100B20005A1CBA601B781846AFF300807B6901330A
:100B30007B617A697B689A42F1DB7B6818461837DB
:100B4000BD4680BD80B483B000AF78604FF0FF3306
:100B500018460C37BD465DF8047B704780B483B0FF
:100B600000AF786039603B684FF400525A60002350
:100B700018460C37BD465DF8047B704780B483B0DF
:100B800000AF7860012318460C37BD465DF8047B42
:100B9000704780B485B000AFF860B9607A60002318
:100BA00018461437BD465DF8047B70470EB480B418
:100BB00082B000AF78604FF0FF3318460837BD466B
:100BC0005DF8047B03B0704780B582B000AF7860F9
:100BD00008F006F903460A221A604FF0FF33184660
:100BE0000837BD4680BD80B582B000AF786008F0A0
:100BF000F7F8034602221A604FF0FF331846083711
:100C0000BD4680BD80B483B000AF78604FF0FF3345
:100C100018460C37BD465DF8047B704780B483B03E
:100C200000AF786039603B684FF400525A6000238F
:100C300018460C37BD465DF8047B704780B582B01E
:100C400000AF7860396008F0CBF803461F221A60C5
:100C50004FF0FF3318460837BD4680BD80B500AF62
:100C600008F0BEF803460B221A604FF0FF33184617
:100C700080BD80B584B000AFF860B9607A6008F0DC
:100C8000AFF803460C221A604FF0FF3318461037B6
:100C9000BD4680BD80B584B000AF7860114B1B6845
:100CA000002B02D10F4B104A1A600E4B1B68FB60E1
:100CB0000C4B1A687B6813446A46934207D908F0C4
:100CC0008FF803460C221A604FF0FF3306E0054B05
:100CD0001A687B681344034A1360FB681846103790
:100CE000BD4680BD100100207402002080B400AF1A
:100CF000084BD3F88830074A43F47003C2F88830B1
:100D0000044B4FF000629A6000BFBD465DF8047B63
:100D1000704700BF00ED00E080B487B000AF002353
:100D20003B6100237B610223FB600023BB60022345
:100D30007B60344B9B6803F00C033B613B69082BE1
:100D400011D03B69082B44D83B69002B03D03B6989
:100D5000042B04D03DE02C4B2C4A1A603DE02A4B7A
:100D60002B4A1A6039E0274B5B689B0D03F00103A7
:100D7000BB60244B5B6803F03F037B60BB68002BC8
:100D80000CD0234A7B68B2FBF3F31E4A52689209E7
:100D9000C2F3080202FB03F37B610BE01B4A7B6892
:100DA000B2FBF3F3174A52689209C2F3080202FB3E
:100DB00003F37B61134B5B681B0C03F003030133EC
:100DC0005B00FB607A69FB68B2FBF3F30E4A1360C9
:100DD00003E00D4B0D4A1A6000BF0A4B9B681B09CC
:100DE00003F00F030B4AD35C3B61074B1A683B6966
:100DF00022FA03F3044A136000BF1C37BD465DF8B6
:100E0000047B704700380240080000200024F400F2
:100E100000127A00B48E000880B400AFFEE7000034
:100E200080B584B000AFDFF87CD0194A194BD31AD3
:100E30009B10FB60174BBB60174B7B6007E07A6829
:100E4000531C7B60BB68591CB96012781A70FB6830
:100E50005A1EFA60002BF2D1104A114BD31A9B1084
:100E6000FB600F4BBB6004E0BB685A1CBA600022F9
:100E70001A70FB685A1EFA60002BF5D1FFF736FF97
:100E800007F0C8FFFFF770FB00BF1037BD4680BDFD
:100E9000A000002000000020248F00087402002021
:100EA000A80000200000022080B588B000AFF860E4
:100EB000B9607A60FF23FB610023BB610FE0FA6831
:100EC000BB6913441B787B6107F1140301221946A7
:100ED0000E4800F0A6FDF861BB690133BB61BA6939
:100EE000BB689A42EBD3094B1B689A68074B1B6897
:100EF00042F001029A60FA697B689A4201D10023AC
:100F000000E0012318462037BD4680BDC400002004
:100F100080B500AF0E4B1B680D4A43F4007313609D
:100F20000B4B1B680A4A43F480631360084B1B6831
:100F3000074A43F480731360032000F0C1FB0020D4
:100F400000F042F8FFF78AFC0023184680BD00BF7E
:100F5000003C024080B500AF134B4FF0FF321A62E5
:100F6000114B00221A62104B4FF0FF325A620E4BA7
:100F700000225A620C4B4FF0FF321A610A4B0022DA
:100F80001A61094B4FF0FF325A61074B00225A6138
:100F9000054B4FF0FF329A61034B00229A6100F03B
:100FA0000CF80023184680BD0038024080B400AF22
:100FB00000BFBD465DF8047B704780B400AF00BF42
:100FC000BD465DF8047B704780B582B000AF7860A5
:100FD000124B1A68124B1B7819464FF47A73B3FB05
:100FE000F1F3B2FBF3F3184600F0B1FB0346002B1C
:100FF00001D001230EE07B680F2B0AD8002279680C
:101000004FF0FF3000F067FB064A7B681360002357
:1010100000E0012318460837BD4680BD08000020C7
:10102000380000203400002080B400AF064B1B784D
:101030001A46064B1B681344044A136000BFBD46A2
:101040005DF8047B704700BF380000203C010020A1
:1010500080B400AF034B1B681846BD465DF8047BA7
:10106000704700BF3C01002080B400AF034B1B68F9
:101070001846BD465DF8047B704700BF3400002071
:1010800080B584B000AF0346FB710023FB730E4BA9
:101090001B78FA799A4212D00B4B1B78BB730A4A21
:1010A000FB791370094B1B681846FFF78DFF034649
:1010B000FB73FB7B002B02D0034ABB7B1370FB7BD3
:1010C00018461037BD4680BD38000020340000208F
:1010D00080B400AF034B1B781846BD465DF8047B17
:1010E000704700BF3800002080B584B000AF786042
:1010F000FFF7AEFFB8607B68FB60FB68B3F1FF3FB2
:1011000005D00A4B1B781A46FB681344FB6000BFEE
:10111000FFF79EFF0246BB68D31AFA689A42F7D8D7
:1011200000BF00BF1037BD4680BD00BF38000020A3
:1011300080B400AF054B1B68044A23F00203136020
:1011400000BFBD465DF8047B704700BF10E000E0C3
:1011500080B400AF054B1B68044A43F002031360E0
:1011600000BFBD465DF8047B704700BF10E000E0A3
:1011700080B400AF024B1846BD465DF8047B704753
:10118000000A070180B400AF034B1B681B0C184614
:10119000BD465DF8047B7047002004E080B400AFDA
:1011A000044B1B68C3F30B031846BD465DF8047B74
:1011B000704700BF002004E080B400AF054B5B68BF
:1011C000044A43F00103536000BFBD465DF8047B51
:1011D000704700BF002004E080B400AF054B5B689F
:1011E000044A23F00103536000BFBD465DF8047B51
:1011F000704700BF002004E080B400AF054B5B687F
:10120000044A43F00203536000BFBD465DF8047B0F
:10121000704700BF002004E080B400AF054B5B685E
:10122000044A23F00203536000BFBD465DF8047B0F
:10123000704700BF002004E080B400AF054B5B683E
:10124000044A43F00403536000BFBD465DF8047BCD
:10125000704700BF002004E080B400AF054B5B681E
:10126000044A23F00403536000BFBD465DF8047BCD
:10127000704700BF002004E080B400AF034B0122A0
:101280001A6000BFBD465DF8047B7047000427422A
:1012900080B400AF034B00221A6000BFBD465DF86A
:1012A000047B70470004274280B400AF034B1B68E7
:1012B0001846BD465DF8047B704700BF107AFF1FDB
:1012C00080B400AF034B1B681846BD465DF8047B35
:1012D000704700BF147AFF1F80B400AF034B1B6838
:1012E0001846BD465DF8047B704700BF187AFF1FA3
:1012F00080B485B000AF78607B6803F00703FB60C3
:101300000C4BDB68BB60BA684FF6FF031340BB6051
:10131000FB681A02BB68134343F0BF6343F4003316
:10132000BB60044ABB68D36000BF1437BD465DF89C
:10133000047B704700ED00E080B400AF044BDB6835
:101340001B0A03F007031846BD465DF8047B70478F
:1013500000ED00E080B483B000AF0346FB7197F965
:101360000730002B0BDBFB7903F01F02074997F9CD
:1013700007305B09012000FA02F241F8232000BF88
:101380000C37BD465DF8047B704700BF00E100E00C
:1013900080B483B000AF0346FB7197F90730002B90
:1013A00012DBFB7903F01F020A4997F907305B094A
:1013B000012000FA02F2203341F82320BFF34F8FBF
:1013C00000BFBFF36F8F00BF00BF0C37BD465DF895
:1013D000047B704700E100E080B483B000AF0346B7
:1013E000FB7197F90730002B0EDB0B4A97F907309A
:1013F0005B09403352F82320FB7903F01F0322FAE4
:1014000003F303F0010300E0002318460C37BD4648
:101410005DF8047B704700BF00E100E080B483B05A
:1014200000AF0346FB7197F90730002B0CDBFB790B
:1014300003F01F02074997F907305B09012000FA02
:1014400002F2403341F8232000BF0C37BD465DF85F
:10145000047B704700E100E080B483B000AF034636
:10146000FB7197F90730002B0CDBFB7903F01F02AF
:10147000074997F907305B09012000FA02F260334F
:1014800041F8232000BF0C37BD465DF8047B704750
:1014900000E100E080B483B000AF0346FB7197F930
:1014A0000730002B0EDB0B4A97F907305B098033BE
:1014B00052F82320FB7903F01F0322FA03F303F011
:1014C000010300E0002318460C37BD465DF8047B9D
:1014D000704700BF00E100E080B483B000AF034676
:1014E0003960FB7197F90730002B0ADB3B68DAB2F1
:1014F0000C4997F907301201D2B20B4483F800234C
:101500000AE03B68DAB20849FB7903F00F03043BB9
:101510001201D2B20B441A7600BF0C37BD465DF8FB
:10152000047B704700E100E000ED00E080B483B090
:1015300000AF0346FB7197F90730002B09DB0D4A1A
:1015400097F90730134493F80033DBB21B09DBB281
:1015500009E0094AFB7903F00F03043B13441B7EA7
:10156000DBB21B09DBB218460C37BD465DF8047BC5
:10157000704700BF00E100E000ED00E080B489B0FA
:1015800000AFF860B9607A60FB6803F00703FB61A5
:10159000FB69C3F10703042B28BF0423BB61FB696C
:1015A0000433062B02D9FB69033B00E000237B6177
:1015B0004FF0FF32BB6902FA03F3DA43BB681A400B
:1015C0007B699A404FF0FF317B6901FA03F3D943FD
:1015D0007B680B40134318462437BD465DF8047BF7
:1015E000704780B489B000AFF860B9607A603B6042
:1015F000BB6803F00703FB61FB69C3F10703042B1E
:1016000028BF0423BB61FB690433062B02D9FB69A5
:10161000033B00E000237B61FA687B69DA404FF00E
:10162000FF31BB6901FA03F3DB431A407B681A60A0
:101630004FF0FF327B6902FA03F3DA43FB681A408A
:101640003B681A6000BF2437BD465DF8047B7047D5
:1016500080B400AFBFF34F8F00BF064BDB6803F4CD
:10166000E0620449044B1343CB60BFF34F8F00BFCC
:1016700000BFFDE700ED00E00400FA0580B582B090
:1016800000AF78607B68013BB3F1807F01D3012319
:101690000FE00A4A7B68013B53600F214FF0FF3097
:1016A000FFF71AFF054B00229A60044B07221A60CD
:1016B000002318460837BD4680BD00BF10E000E09B
:1016C00080B582B000AF78607868FFF711FE00BF88
:1016D0000837BD4680BD80B586B000AF0346B9600F
:1016E0007A60FB7300237B61FFF726FE78617A68DE
:1016F000B9687869FFF742FF024697F90F30114643
:101700001846FFF7E9FE00BF1837BD4680BD80B51B
:1017100082B000AF0346FB7197F907301846FFF718
:1017200019FE00BF0837BD4680BD80B582B000AF4E
:101730000346FB7197F907301846FFF729FE00BFF3
:101740000837BD4680BD80B500AFFFF781FF80B58B
:1017500082B000AF78607868FFF790FF03461846C4
:101760000837BD4680BD000080B400AFBFF35F8F77
:1017700000BF074B5B6A064A23F480335362054B74
:1017800000225A6000BFBD465DF8047B704700BF71
:1017900000ED00E090ED00E080B483B000AF786031
:1017A0000B4A7B6843F0010353600A4B5B6A094AAA
:1017B00043F480335362BFF34F8F00BFBFF36F8F8B
:1017C00000BF00BF0C37BD465DF8047B704700BF0B
:1017D00090ED00E000ED00E080B483B000AF7860F1
:1017E0007B685A781D4B9A607B681B78002B29D048
:1017F0001A4A7B685B68D3607B681B7B1A077B682F
:10180000DB7A1B061A437B689B7ADB041A437B68EE
:101810005B7B9B041A437B689B7B5B041A437B685E
:10182000DB7B1B041A437B685B7A1B021A437B68D1
:101830001B7A5B0013437A6812781146074A0B4300
:10184000136105E0054B0022DA60044B00221A61A7
:1018500000BF0C37BD465DF8047B704790ED00E09B
:1018600080B500AFFFF768FD0346184680BD80B520
:1018700084B000AFB9607A603B600346FB7397F9B0
:101880000F301846FFF752FE3B687A68B968FFF7D9
:10189000A8FE00BF1037BD4680BD80B582B000AF46
:1018A0000346FB7197F907301846FFF7B7FD00BFF5
:1018B0000837BD4680BD80B582B000AF0346FB71DE
:1018C00097F907301846FFF787FD03461846083793
:1018D000BD4680BD80B582B000AF0346FB7197F96D
:1018E00007301846FFF7B8FD00BF0837BD4680BD7A
:1018F00080B582B000AF0346FB7197F907301846F8
:10190000FFF7C8FD034618460837BD4680BD0000F6
:1019100080B483B000AF78607B68042B06D1094B9C
:101920001B68084A43F00403136005E0054B1B687D
:10193000044A23F00403136000BF0C37BD465DF872
:10194000047B704710E000E080B500AF00F002F8C3
:1019500000BF80BD80B400AF00BFBD465DF8047B12
:10196000704780B582B000AF78607B68002B01D1F2
:1019700001230EE07B685B79DBB2002B05D17B682D
:1019800000221A717868FEF791FF7B6801225A7174
:10199000002318460837BD4680BD80B582B000AF31
:1019A00078607B68002B01D1012322E07B685B79A2
:1019B000DBB2022B01D102231BE07B6802225A71A9
:1019C0007B681B689A687B681B6842F001029A601A
:1019D0007B681B681B797B681B6800221A7178681A
:1019E000FEF786FF7B6800225A717B6800221A711D
:1019F000002318460837BD4680BD80B483B000AFD1
:101A0000786000BF0C37BD465DF8047B704780B43A
:101A100083B000AF786000BF0C37BD465DF8047B33
:101A2000704780B487B000AFF860B9607A60002377
:101A30003B61FB6802225A7100237B610AE07B69EB
:101A40009B00BA681A44FB681B6812681A607B69BD
:101A500001337B617A697B689A42F0D3FB681B682B
:101A60001B683B61FB6801225A713B6918461C37B1
:101A7000BD465DF8047B704780B487B000AFF86066
:101A8000B9607A6000233B61FB6802225A71FB68EF
:101A90001B689A68FB681B6842F001029A60002389
:101AA0007B610AE07B699B00BA681A44FB681B688B
:101AB00012681A607B6901337B617A697B689A429C
:101AC000F0D3FB681B681B683B61FB6801225A71FD
:101AD0003B6918461C37BD465DF8047B704780B4EF
:101AE00083B000AF78607B685B79DBB218460C3757
:101AF000BD465DF8047B704780B586B000AF786066
:101B000000237B61FFF7A4FA38617B68002B01D1C9
:101B1000012399E07B68002283F834207B6802224D
:101B200083F835207B681B681A687B681B6822F085
:101B300001021A600FE0FFF78BFA02463B69D31AE5
:101B4000052B08D97B6820225A657B68032283F81D
:101B50003520032378E07B681B681B6803F00103D2
:101B6000002BE8D17B681B681B687B617A69384B66
:101B700013407B617B685A687B689B681A437B686B
:101B8000DB681A437B681B691A437B685B691A43ED
:101B90007B689B691A437B68DB691A437B681B6A15
:101BA00013437A6913437B617B685B6A042B07D11B
:101BB0007B68DA6A7B681B6B13437A6913437B612A
:101BC0007B681B687A691A607B681B685B697B614C
:101BD0007B6923F007037B617B685B6A7A69134347
:101BE0007B617B685B6A042B17D17B689B6A7A698F
:101BF00013437B617B68DB6A002B0ED0786800F0B2
:101C000051FD0346002B08D07B6840225A657B6853
:101C1000012283F83520012316E07B681B687A696E
:101C20005A61786800F008FD0346FB607B68DB6D55
:101C30003F229A40FB689A607B6800225A657B6865
:101C4000012283F83520002318461837BD4680BD91
:101C50003F8010F080B584B000AF78607B68002BC7
:101C600001D1012350E07B6893F83530DBB2022BC1
:101C700001D1022348E07B681B681A687B681B68F7
:101C800022F001021A607B681B6800221A607B68E0
:101C90001B6800225A607B681B6800229A607B6880
:101CA0001B680022DA607B681B6800221A617B686F
:101CB0001B6821225A61786800F0BEFC0346FB6075
:101CC0007B680022DA637B6800221A647B6800224A
:101CD0005A647B6800229A647B680022DA647B681D
:101CE00000221A657B68DB6D3F229A40FB689A6090
:101CF0007B6800225A657B68002283F835207B6868
:101D0000002283F83420002318461037BD4680BDDA
:101D100080B586B000AFF860B9607A603B600023A0
:101D2000FB75FB6893F83430012B01D1022326E0C8
:101D3000FB68012283F83420FB6893F83530DBB26E
:101D4000012B15D1FB68022283F83520FB680022A5
:101D50005A653B687A68B968F86800F03FFCFB6830
:101D60001B681A68FB681B6842F001021A6005E0F4
:101D7000FB68002283F834200223FB75FB7D1846A4
:101D80001837BD4680BD80B586B000AFF860B96039
:101D90007A603B600023FB75FB689B6D3B61FB68D1
:101DA00093F83430012B01D1022340E0FB6801227B
:101DB00083F83420FB6893F83530DBB2012B2FD148
:101DC000FB68022283F83520FB6800225A653B68D5
:101DD0007A68B968F86800F001FCFB68DB6D3F22A7
:101DE0009A403B699A60FB681B681A68FB681B682D
:101DF00042F016021A60FB681B6C002B07D0FB68D0
:101E00001B681A68FB681B6842F008021A60FB68CE
:101E10001B681A68FB681B6842F001021A6005E043
:101E2000FB68002283F834200223FB75FB7D1846F3
:101E30001837BD4680BD80B584B000AF78607B6840
:101E40009B6DFB60FFF704F9B8607B6893F8353051
:101E5000DBB2022B08D07B6880225A657B680022A7
:101E600083F83420012352E07B681B681A687B6882
:101E70001B6822F016021A607B681B685A697B682F
:101E80001B6822F080025A617B681B6C002B03D117
:101E90007B689B6C002B07D07B681B681A687B688B
:101EA0001B6822F008021A607B681B681A687B684E
:101EB0001B6822F001021A6013E0FFF7C9F802461E
:101EC000BB68D31A052B0CD97B6820225A657B6826
:101ED000002283F834207B68032283F83520032313
:101EE00015E07B681B681B6803F00103002BE4D13D
:101EF0007B68DB6D3F229A40FB689A607B6800221A
:101F000083F834207B68012283F8352000231846AB
:101F10001037BD4680BD80B483B000AF78607B6869
:101F200093F83530DBB2022B04D07B6880225A65EF
:101F300001230CE07B68052283F835207B681B6851
:101F40001A687B681B6822F001021A600023184699
:101F50000C37BD465DF8047B704780B58AB000AF92
:101F6000F8600B467A60FB720023FB77FFF770F88E
:101F7000B861FB6893F83530DBB2022B08D0FB6800
:101F800080225A65FB68002283F834200123BFE0D9
:101F9000FB681B681B6803F48073002B05D0FB688B
:101FA0004FF480725A650123B2E0FB7A002B06D110
:101FB000FB68DB6D202202FA03F37B6205E0FB681D
:101FC000DB6D102202FA03F37B62FB689B6D7B6181
:101FD0007B691B683B625AE07B68B3F1FF3F17D017
:101FE0007B68002B07D0FFF733F80246BB69D31A92
:101FF0007A689A420CD2FB6820225A65FB6800225C
:1020000083F83420FB68012283F8352003237FE026
:102010007B691B683B62FB68DB6D08229A403B6A68
:102020001340002B0BD0FB685B6D43F00102FB6893
:102030005A65FB68DB6D08229A407B699A60FB68F1
:10204000DB6D01229A403B6A1340002B0BD0FB68EA
:102050005B6D43F00202FB685A65FB68DB6D012291
:102060009A407B699A60FB68DB6D04229A403B6A68
:102070001340002B0BD0FB685B6D43F00402FB6840
:102080005A65FB68DB6D04229A407B699A603A6A64
:102090007B6A1340002B05D1FB685B6D03F00103E5
:1020A000002B99D0FB685B6D002B18D0FB685B6D33
:1020B00003F00103002B12D0F868FFF7BCFEFB68A9
:1020C000DB6D30229A407B699A60FB68002283F8BE
:1020D0003420FB68012283F83520012318E0FB7AC5
:1020E000002B0ED1FB68DB6D30229A407B699A6031
:1020F000FB68002283F83420FB68012283F8352036
:1021000005E0FB68DB6D10229A407B699A60FB7FDB
:1021100018462837BD4680BD80B586B000AF7860D0
:102120000023BB608E4B1B688E4AA2FB03239B0AD5
:102130007B617B689B6D3B613B691B68FB607B68D7
:10214000DB6D08229A40FB681340002B1AD07B6895
:102150001B681B6803F00403002B13D07B681B680B
:102160001A687B681B6822F004021A607B68DB6DCA
:1021700008229A403B699A607B685B6D43F00102DC
:102180007B685A657B68DB6D01229A40FB681340CF
:10219000002B12D07B681B685B6903F08003002B67
:1021A0000BD07B68DB6D01229A403B699A607B68AB
:1021B0005B6D43F002027B685A657B68DB6D04222D
:1021C0009A40FB681340002B12D07B681B681B6889
:1021D00003F00203002B0BD07B68DB6D04229A40D6
:1021E0003B699A607B685B6D43F004027B685A65CB
:1021F0007B68DB6D10229A40FB681340002B43D0B4
:102200007B681B681B6803F00803002B3CD07B68CD
:10221000DB6D10229A403B699A607B681B681B68E3
:1022200003F48023002B18D07B681B681B6803F421
:102230000023002B08D17B681B6C002B24D07B680B
:102240001B6C786898471FE07B689B6C002B1BD049
:102250007B689B6C7868984716E07B681B681B68F6
:1022600003F48073002B07D17B681B681A687B68B6
:102270001B6822F008021A607B681B6C002B03D0DD
:102280007B681B6C786898477B68DB6D20229A40DE
:10229000FB681340002B00F08F807B681B681B6875
:1022A00003F01003002B00F087807B68DB6D202299
:1022B0009A403B699A607B6893F83530DBB2052B16
:1022C00036D17B681B681A687B681B6822F016028F
:1022D0001A607B681B685A697B681B6822F0800261
:1022E0005A617B681B6C002B03D17B689B6C002BB5
:1022F00007D07B681B681A687B681B6822F008029D
:102300001A607B68DB6D3F229A403B699A607B686C
:10231000002283F834207B68012283F835207B6813
:102320001B6D002B7ED07B681B6D7868984779E029
:102330007B681B681B6803F48023002B1DD07B681F
:102340001B681B6803F40023002B0DD17B685B6CBA
:10235000002B31D07B685B6C786898472CE000BF1D
:1023600008000020B5814E1B7B68DB6B002B23D05F
:102370007B68DB6B786898471EE07B681B681B688E
:1023800003F48073002B0FD17B681B681A687B688D
:102390001B6822F010021A607B68002283F8342048
:1023A0007B68012283F835207B68DB6B002B03D030
:1023B0007B68DB6B786898477B685B6D002B32D05D
:1023C0007B685B6D03F00103002B22D07B68052244
:1023D00083F835207B681B681A687B681B6822F0CD
:1023E00001021A60BB680133BB607A699A4207D365
:1023F0007B681B681B6803F00103002BF2D100E02F
:1024000000BF7B68002283F834207B68012283F8B8
:1024100035207B68DB6C002B05D07B68DB6C786833
:10242000984700E000BF1837BD4680BD80B487B034
:1024300000AFF8600B467A60FB720023FB75FB6807
:1024400093F83430012B01D102233CE0FB680122D8
:1024500083F83420FB6893F83530DBB2012B29D1A7
:10246000FB7A052B29D801A252F823F08524000815
:102470008D240008952400089D240008A524000848
:10248000AD240008FB687A68DA6317E0FB687A68B5
:102490001A6413E0FB687A685A640FE0FB687A6894
:1024A0009A640BE0FB687A68DA6407E0FB687A6894
:1024B0001A6503E00123FB7500E000BFFB68002202
:1024C00083F83420FB7D18461C37BD465DF8047B3D
:1024D000704700BF80B485B000AF78600B46FB70DA
:1024E0000023FB737B6893F83430012B01D1022366
:1024F00053E07B68012283F834207B6893F8353001
:10250000DBB2012B42D1FB78062B3CD801A252F85A
:1025100023F000BF312500083925000841250008B7
:1025200049250008512500085925000861250008A3
:102530007B680022DA632BE07B6800221A6427E0C4
:102540007B6800225A6423E07B6800229A641FE0C3
:102550007B680022DA641BE07B6800221A6517E0C2
:102560007B680022DA637B6800221A647B680022A1
:102570005A647B6800229A647B680022DA647B6874
:1025800000221A6504E00123FB7301E00123FB73C1
:102590007B68002283F83420FB7B18461437BD4645
:1025A0005DF8047B704700BF80B483B000AF7860F3
:1025B0007B6893F83530DBB218460C37BD465DF8C2
:1025C000047B704780B483B000AF78607B685B6D3C
:1025D00018460C37BD465DF8047B704780B485B063
:1025E00000AFF860B9607A603B60FB681B681A68EE
:1025F000FB681B6822F480221A60FB681B683A683B
:102600005A60FB689B68402B08D1FB681B687A689E
:102610009A60FB681B68BA68DA6007E0FB681B68B1
:10262000BA689A60FB681B687A68DA6000BF143782
:10263000BD465DF8047B704780B485B000AF78601C
:102640007B681B68DBB2103B144AA2FB03231B0907
:10265000FB60134AFB6813441B781A467B68DA65F3
:10266000FB68032B09D97B681B6823F47F7323F075
:1026700003031A1D7B689A6507E07B681B6823F4D7
:102680007F7323F003037A6893657B689B6D18461C
:102690001437BD465DF8047B704700BFABAAAAAAF9
:1026A000F48E000880B485B000AF78600023FB731F
:1026B0007B689B6ABB607B689B69002B1FD1BB68F2
:1026C000032B56D801A252F823F000BFDD260008E4
:1026D000EF260008DD260008732700087B68DB6A08
:1026E00003F08073002B46D00123FB7343E07B682B
:1026F000DB6AB3F1C07F40D10123FB733DE07B680F
:102700009B69B3F5005F21D1BB68032B37D801A2C9
:1027100052F823F0252700082B270008252700085A
:102720003D2700080123FB7330E07B68DB6A03F080
:102730008073002B25D00123FB7322E07B68DB6ACA
:10274000B3F1C07F1FD10123FB731CE0BB68022BD8
:1027500003D9BB68032B03D018E00123FB7315E0FA
:102760007B68DB6A03F08073002B0ED00123FB73C0
:102770000BE000BF0AE000BF08E000BF06E000BFBA
:1027800004E000BF02E000BF00E000BFFB7B184692
:102790001437BD465DF8047B704700BF80B586B036
:1027A00000AFF860B9607A603B600023FB75FB689E
:1027B0009B68802B06D1FB684FF480725A65012319
:1027C000FB7531E0FB6893F83430012B01D1022313
:1027D0002BE0FB68012283F83420FB6893F8353046
:1027E000DBB2012B1ED1FB68022283F83520FB6887
:1027F0001B681A68FB681B6842F480221A60FB6839
:102800001B683A681A613B6A7A68B968F86801F02F
:1028100073F9FB681B681A68FB681B6842F00102C9
:102820001A6001E00223FB75FB7D18461837BD4690
:1028300080BD000080B586B000AFF860B9607A60F6
:102840003B600023FB75FB689B68802B06D1FB680F
:102850004FF480725A65012301F011B9FB68DB6BFC
:10286000002B07D0FB685B6C002B03D0FB68DB6C94
:10287000002B05D1FB6840225A65012301F0FFB807
:10288000FB6893F83430012B02D1022301F0F7B832
:10289000FB68012283F83420FB6893F83530DBB203
:1028A000012B41F0E580FB68022283F83520FB68AC
:1028B00000225A65FB681B681A68FB681B6842F4B3
:1028C00080221A60FB681B683A681A613B6A7A6862
:1028D000B968F86801F010F9FB681B681A468D4B5F
:1028E0009A4260D9FB681B688B4A934257D0FB68B9
:1028F0001B688A4A934250D0FB681B68884A9342FF
:1029000049D0FB681B68874A934242D0FB681B682A
:10291000854A93423AD0FB681B68844A934232D07E
:10292000FB681B68824A93422AD0FB681B68814A75
:10293000934222D0FB681B687F4A93421AD0FB68FF
:102940001B687E4A934212D0FB681B687C4A934204
:102950000AD0FB681B687B4A934202D14FF40013F4
:102960001EE04FF000631BE04FF4001318E04FF43B
:10297000001315E04FF4001312E04FF400630FE072
:102980004FF400630CE04FF4006309E04FF4006380
:1029900006E0202304E0202302E0202300E020239F
:1029A000694AD3604FE1FB681B681A46674B9A423D
:1029B00060D9FB681B68584A934257D0FB681B6874
:1029C000564A934250D0FB681B68554A934249D0FF
:1029D000FB681B68534A934242D0FB681B68524A0B
:1029E00093423AD0FB681B68504A934232D0FB684E
:1029F0001B684F4A93422AD0FB681B684D4A93429A
:102A000022D0FB681B684C4A93421AD0FB681B68B3
:102A10004A4A934212D0FB681B68494A93420AD043
:102A2000FB681B68474A934202D14FF400131EE033
:102A30004FF000631BE04FF4001318E04FF4001355
:102A400015E04FF4001312E04FF400630FE04FF471
:102A500000630CE04FF4006309E04FF4006306E00C
:102A6000202304E0202302E0202300E02023364A34
:102A70009360E8E0FB681B681A46354B9A4240F2C7
:102A80008280FB681B68244A934278D0FB681B68ED
:102A9000224A934271D0FB681B68214A93426AD054
:102AA000FB681B681F4A934263D0FB681B681E4A81
:102AB00093425BD0FB681B681C4A934253D0FB686F
:102AC0001B681B4A93424BD0FB681B68194A934210
:102AD00043D0FB681B68184A93423BD0FB681B68D5
:102AE000164A934212D0FB681B68154A93420AD0DB
:102AF000FB681B68134A934202D14FF400133FE076
:102B00004FF000633CE04FF4001339E04FF4001342
:102B100036E000BF5864024010600240106402407A
:102B200070600240706402402860024028640240E5
:102B30008860024088640240406002404064024075
:102B4000A0600240A064024000640240B8600240FD
:102B5000586002404FF4001312E04FF400630FE09E
:102B60004FF400630CE04FF4006309E04FF400639E
:102B700006E0202304E0202302E0202300E02023BD
:102B80008C4AD3605FE0FB681B688B4A934257D046
:102B9000FB681B68894A934250D0FB681B68884ACF
:102BA000934249D0FB681B68864A934242D0FB6837
:102BB0001B68854A93423AD0FB681B68834A93425C
:102BC00032D0FB681B68824A93422AD0FB681B689C
:102BD000804A934222D0FB681B687F4A93421AD0F6
:102BE000FB681B687D4A934212D0FB681B687C4AD5
:102BF00093420AD0FB681B687A4A934202D14FF491
:102C000000131EE04FF000631BE04FF4001318E0C8
:102C10004FF4001315E04FF4001312E04FF400637B
:102C20000FE04FF400630CE04FF4006309E04FF451
:102C3000006306E0202304E0202302E0202300E0DC
:102C400020235C4A9360FB681B681A46664B9A42D5
:102C500060D9FB681B68584A934257D0FB681B68D1
:102C6000564A934250D0FB681B68554A934249D05C
:102C7000FB681B68534A934242D0FB681B68524A68
:102C800093423AD0FB681B68504A934232D0FB68AB
:102C90001B684F4A93422AD0FB681B684D4A9342F7
:102CA00022D0FB681B684C4A93421AD0FB681B6811
:102CB0004A4A934212D0FB681B68494A93420AD0A1
:102CC000FB681B68474A934202D14FF480131EE011
:102CD0004FF080631BE04FF4801318E04FF4801333
:102CE00015E04FF4801312E04FF480630FE04FF4CF
:102CF00080630CE04FF4806309E04FF4806306E0EA
:102D0000102304E0102302E0102300E01023374AD0
:102D1000D3604FE1FB681B681A46354B9A4240F27C
:102D20008280FB681B68244A934278D0FB681B684A
:102D3000224A934271D0FB681B68214A93426AD0B1
:102D4000FB681B681F4A934263D0FB681B681E4ADE
:102D500093425BD0FB681B681C4A934253D0FB68CC
:102D60001B681B4A93424BD0FB681B68194A93426D
:102D700043D0FB681B68184A93423BD0FB681B6832
:102D8000164A934212D0FB681B68154A93420AD038
:102D9000FB681B68134A934202D14FF480133FE053
:102DA0004FF080633CE04FF4801339E04FF4801320
:102DB00036E000BF00600240106002401064024034
:102DC0007060024070640240286002402864024043
:102DD00088600240886402404060024040640240D3
:102DE000A0600240A06402405864024000640240B7
:102DF000B86002404FF4801312E04FF480630FE09C
:102E00004FF480630CE04FF4806309E04FF480637B
:102E100006E0102304E0102302E0102300E010235A
:102E20008C4A9360C6E0FB681B681A468A4B9A423C
:102E300060D9FB681B68894A934257D0FB681B68BE
:102E4000874A934250D0FB681B68864A934249D018
:102E5000FB681B68844A934242D0FB681B68834A24
:102E600093423AD0FB681B68814A934232D0FB6898
:102E70001B68804A93422AD0FB681B687E4A9342B3
:102E800022D0FB681B687D4A93421AD0FB681B68FE
:102E90007B4A934212D0FB681B687A4A93420AD05D
:102EA000FB681B68784A934202D14FF480131EE0FE
:102EB0004FF080631BE04FF4801318E04FF4801351
:102EC00015E04FF4801312E04FF480630FE04FF4ED
:102ED00080630CE04FF4806309E04FF4806306E008
:102EE000102304E0102302E0102300E01023674ABF
:102EF000D3605FE0FB681B68584A934257D0FB6879
:102F00001B68574A934250D0FB681B68554A93424E
:102F100049D0FB681B68544A934242D0FB681B6847
:102F2000524A93423AD0FB681B68514A934232D0CE
:102F3000FB681B684F4A93422AD0FB681B684E4AC5
:102F4000934222D0FB681B684C4A93421AD0FB681C
:102F50001B684B4A934212D0FB681B68494A934254
:102F60000AD0FB681B68484A934202D14FF4801391
:102F70001EE04FF080631BE04FF4801318E04FF425
:102F8000801315E04FF4801312E04FF480630FE0DC
:102F90004FF480630CE04FF4806309E04FF48063EA
:102FA00006E0102304E0102302E0102300E01023C9
:102FB000364A9360FB681B681A46354B9A4240F2CA
:102FC0008280FB681B68254A934278D0FB681B68A7
:102FD000234A934271D0FB681B68224A93426AD00D
:102FE000FB681B68204A934263D0FB681B681F4A3A
:102FF00093425BD0FB681B681D4A934253D0FB6829
:103000001B681C4A93424BD0FB681B681A4A9342C8
:1030100043D0FB681B68194A93423BD0FB681B688E
:10302000174A934212D0FB681B68164A93420AD093
:10303000FB681B68144A934202D14FF400233FE01F
:103040004FF000733CE04FF4002339E04FF40023CD
:1030500036E000BF00640240586002401060024049
:1030600010640240706002407064024028600240B8
:103070002864024088600240886402404060024048
:1030800040640240A0600240A06402400060024030
:10309000586402404FF4002312E04FF400730FE035
:1030A0004FF400730CE04FF4007309E04FF4007329
:1030B00006E0082304E0082302E0082300E00823D8
:1030C0008C4AD3604EE1FB681B681A468A4B9A42D1
:1030D00060D9FB681B68894A934257D0FB681B681C
:1030E000874A934250D0FB681B68864A934249D076
:1030F000FB681B68844A934242D0FB681B68834A82
:1031000093423AD0FB681B68814A934232D0FB68F5
:103110001B68804A93422AD0FB681B687E4A934210
:1031200022D0FB681B687D4A93421AD0FB681B685B
:103130007B4A934212D0FB681B687A4A93420AD0BA
:10314000FB681B68784A934202D14FF400231EE0CB
:103150004FF000731BE04FF4002318E04FF40023FE
:1031600015E04FF4002312E04FF400730FE04FF42A
:1031700000730CE04FF4007309E04FF4007306E0B5
:10318000082304E0082302E0082300E00823594A4A
:103190009360E7E0FB681B681A46644B9A4260D96B
:1031A000FB681B68554A934257D0FB681B68544A1A
:1031B000934250D0FB681B68524A934249D0FB6847
:1031C0001B68514A934242D0FB681B684F4A9342A6
:1031D0003AD0FB681B684E4A934232D0FB681B68AA
:1031E0004C4A93422AD0FB681B684B4A934222D038
:1031F000FB681B68494A93421AD0FB681B68484A1F
:10320000934212D0FB681B68464A93420AD0FB687F
:103210001B68454A934202D14FF400231EE04FF051
:1032200000731BE04FF4002318E04FF4002315E077
:103230004FF4002312E04FF400730FE04FF40073DB
:103240000CE04FF4007309E04FF4007306E008232C
:1032500004E0082302E0082300E00823344AD36096
:1032600080E0FB681B68254A934278D0FB681B68A6
:10327000234A934271D0FB681B68224A93426AD06A
:10328000FB681B68204A934263D0FB681B681F4A97
:1032900093425BD0FB681B681D4A934253D0FB6886
:1032A0001B681C4A93424BD0FB681B681A4A934226
:1032B00043D0FB681B68194A93423BD0FB681B68EC
:1032C000174A934212D0FB681B68164A93420AD0F1
:1032D000FB681B68144A934202D14FF400233FE07D
:1032E0004FF000733CE04FF4002339E04FF400232B
:1032F00036E000BF00640240B86002401060024047
:103300001064024070600240706402402860024015
:1033100028640240886002408864024040600240A5
:1033200040640240A0600240A06402405860024035
:10333000006002404FF4002312E04FF400730FE0EE
:103340004FF400730CE04FF4007309E04FF4007386
:1033500006E0082304E0082302E0082300E0082335
:103360008A4A9360FB681B681A46894B9A4260D967
:10337000FB681B68874A934257D0FB681B68864AE4
:10338000934250D0FB681B68844A934249D0FB6843
:103390001B68834A934242D0FB681B68814A934270
:1033A0003AD0FB681B68804A934232D0FB681B68A6
:1033B0007E4A93422AD0FB681B687D4A934222D002
:1033C000FB681B687B4A93421AD0FB681B687A4AE9
:1033D000934212D0FB681B68784A93420AD0FB687C
:1033E0001B68774A934202D14FF480231EE04FF0CE
:1033F00080731BE04FF4802318E04FF4802315E026
:103400004FF4802312E04FF480730FE04FF4807389
:103410000CE04FF4807309E04FF4807306E004235E
:1034200004E0042302E0042300E00423654AD3609F
:1034300050E1FB681B681A46634B9A4260D9FB68EF
:103440001B68544A934257D0FB681B68524A934208
:1034500050D0FB681B68514A934249D0FB681B68F7
:103460004F4A934242D0FB681B684E4A93423AD07F
:10347000FB681B684C4A934232D0FB681B684B4A7E
:1034800093422AD0FB681B68494A934222D0FB68CA
:103490001B68484A93421AD0FB681B68464A93420D
:1034A00012D0FB681B68454A93420AD0FB681B6830
:1034B000434A934202D14FF480231EE04FF08073C1
:1034C0001BE04FF4802318E04FF4802315E04FF405
:1034D000802312E04FF480730FE04FF480730CE010
:1034E0004FF4807309E04FF4807306E0042304E096
:1034F000042302E0042300E00423324A9360E9E05D
:10350000FB681B681A46314B9A4240F28380FB6885
:103510001B68204A934279D0FB681B681E4A93427D
:1035200072D0FB681B681D4A93426BD0FB681B6816
:103530001B4A934264D0FB681B681A4A93425CD0D2
:10354000FB681B68184A934254D0FB681B68174AF3
:1035500093424CD0FB681B68154A934244D0FB68E9
:103560001B68144A93423CD0FB681B68124A934282
:1035700034D0FB681B68114A93422CD0FB681B684F
:103580000F4A934224D14FF4802340E00060024070
:1035900058640240106002401064024070600240B3
:1035A0007064024028600240286402408860024043
:1035B000886402404060024040640240A0600240D3
:1035C000A064024000640240B860024058600240BB
:1035D0004FF080731BE04FF4802318E04FF48023FA
:1035E00015E04FF4802312E04FF480730FE04FF4A6
:1035F00080730CE04FF4807309E04FF4807306E0B1
:10360000042304E0042302E0042300E004238B4AA3
:10361000D3605FE0FB681B68894A934257D0FB6820
:103620001B68884A934250D0FB681B68864A9342C5
:1036300049D0FB681B68854A934242D0FB681B68EF
:10364000834A93423AD0FB681B68824A934232D045
:10365000FB681B68804A93422AD0FB681B687F4A3C
:10366000934222D0FB681B687D4A93421AD0FB68C4
:103670001B687C4A934212D0FB681B687A4A9342CB
:103680000AD0FB681B68794A934202D14FF4802329
:103690001EE04FF080731BE04FF4802318E04FF4DE
:1036A000802315E04FF4802312E04FF480730FE085
:1036B0004FF480730CE04FF4807309E04FF4807393
:1036C00006E0042304E0042302E0042300E00423D2
:1036D0005A4A9360FB681B681A46654B9A425CD94C
:1036E000FB681B68564A934253D0FB681B68554AD7
:1036F00093424CD0FB681B68534A934245D0FB6809
:103700001B68524A93423ED0FB681B68504A934262
:1037100037D0FB681B684F4A934230D0FB681B6868
:103720004D4A934229D0FB681B684C4A934222D0F1
:10373000FB681B684A4A93421AD0FB681B68494AD7
:10374000934212D0FB681B68474A93420AD0FB6839
:103750001B68464A934202D14FF480331AE04FF47B
:10376000800317E04FF4803314E04FF4803311E00E
:103770004FF480330EE040230CE040230AE0402366
:1037800008E0402306E0012304E0012302E00123D6
:1037900000E00123374AD36041E1FB681B681A4609
:1037A000354B9A427CD9FB681B68254A934273D0FB
:1037B000FB681B68234A93426CD0FB681B68224A53
:1037C000934265D0FB681B68204A93425ED0FB6839
:1037D0001B681F4A934257D0FB681B681D4A9342DF
:1037E00050D0FB681B681C4A934249D0FB681B6899
:1037F0001A4A934242D0FB681B68194A93421AD076
:10380000FB681B68174A934212D0FB681B68164A74
:1038100093420AD0FB681B68144A934202D14FF4CA
:1038200080333AE04FF4800337E04FF4803334E0E4
:103830004FF4803331E04FF480332EE000600240DB
:1038400010600240106402407060024070640240E8
:103850002860024028640240886002408864024078
:103860004060024040640240A0600240A064024008
:103870005864024000640240B860024040230CE0FB
:1038800040230AE0402308E0402306E0012304E04F
:10389000012302E0012300E001237B4A9360BEE0A4
:1038A000FB681B681A46794B9A425CD9FB681B6817
:1038B000774A934253D0FB681B68764A93424CD0B8
:1038C000FB681B68744A934245D0FB681B68734AC7
:1038D00093423ED0FB681B68714A934237D0FB6825
:1038E0001B68704A934230D0FB681B686E4A934253
:1038F00029D0FB681B686D4A934222D0FB681B6885
:103900006B4A93421AD0FB681B686A4A934212D0F2
:10391000FB681B68684A93420AD0FB681B68674AC9
:10392000934202D14FF480331AE04FF4800317E042
:103930004FF4803314E04FF4803311E04FF48033C0
:103940000EE040230CE040230AE0402308E040233F
:1039500006E0012304E0012302E0012300E001234B
:10396000574AD3605BE0FB681B68494A934253D0D7
:10397000FB681B68474A93424CD0FB681B68464A69
:10398000934245D0FB681B68444A93423ED0FB6893
:103990001B68434A934237D0FB681B68414A9342F5
:1039A00030D0FB681B68404A934229D0FB681B68F3
:1039B0003E4A934222D0FB681B683D4A93421AD08C
:1039C000FB681B683B4A934212D0FB681B683A4A6B
:1039D00093420AD0FB681B68384A934202D14FF4E5
:1039E00080331AE04FF4800317E04FF4803314E083
:1039F0004FF4803311E04FF480330EE040230CE0AD
:103A000040230AE0402308E0402306E0012304E0CD
:103A1000012302E0012300E00123294A9360FB68AF
:103A20001B681A68FB681B6842F016021A60FB6884
:103A30001B685A69FB681B6842F080025A61FB6888
:103A40001B6C002B03D1FB689B6C002B07D0FB6821
:103A50001B681A68FB681B6842F008021A60FB6862
:103A60001B681A68FB681B6842F001021A6005E0D7
:103A7000FB68002283F834200223FB75FB7D184687
:103A80001837BD4680BD00BF006402405860024048
:103A90001060024010640240706002407064024096
:103AA0002860024028640240886002408864024026
:103AB0004060024040640240A0600240A0640240B6
:103AC0000060024080B485B000AFF860B960134672
:103AD000FB71FB79002B04D1FB681B68BA68DA60C4
:103AE00003E0FB681B68BA681A61002318461437A4
:103AF000BD465DF8047B704780B485B000AFF860C8
:103B0000B9607A603B60FB681B683A685A60FB6882
:103B10009B68402B08D1FB681B687A689A60FB6839
:103B20001B68BA68DA6007E0FB681B68BA689A60CD
:103B3000FB681B687A68DA6000BF1437BD465DF821
:103B4000047B704780B487B000AF786039607B68D1
:103B5000002B02D03B68002B01D101238FE03B6892
:103B60001A687B681A603B681B6803F01F037B615F
:103B700001227B6902FA03F33B613B681B6803F097
:103B80000073002B52D03B689B6803F00103002BAD
:103B900006D03E4B9A683D493B6913438B6006E073
:103BA0003A4B9A683B69DB43384913408B603B686A
:103BB0009B6803F00203002B06D0344BDA683349CC
:103BC0003B691343CB6006E0304BDA683B69DB436B
:103BD0002E491340CB603B681B6803F0C063B3F110
:103BE000C06F23D12A4A7B699B08023352F82330E5
:103BF000FB607B6903F003039B000F2202FA03F3CF
:103C0000DB43FA681340FB603B68DA687B6903F0CA
:103C100003039B0002FA03F3FA681343FB601C4999
:103C20007B699B080233FA6841F823203B685B6894
:103C300003F00103002B06D0144B1A6813493B69AB
:103C400013430B6006E0114B1A683B69DB430F49D5
:103C500013400B603B685B6803F00203002B06D047
:103C60000A4B5A6809493B6913434B6006E0074B0E
:103C70005A683B69DB43054913404B6000231846F3
:103C80001C37BD465DF8047B704700BF003C014017
:103C90000038014080B487B000AF786039607B683D
:103CA000002B02D03B68002B01D101236AE07B6826
:103CB0001A683B681A603B681B6803F01F037B614E
:103CC00001227B6902FA03F33B61314B1A683B69BD
:103CD0001340002B03D03B6801225A6002E03B688E
:103CE00000225A602A4B5A683B691340002B05D0CA
:103CF0003B685B6843F002023B685A603B681B68A4
:103D000003F00073002B36D0214B9A683B691340B7
:103D1000002B03D03B6801229A6002E03B6800223E
:103D20009A601B4BDA683B691340002B05D03B6857
:103D30009B6843F002023B689A603B681B6803F093
:103D4000C063B3F1C06F12D1124A7B699B08023382
:103D500052F82330FB607B69DB4303F003039B00D5
:103D6000FA6802FA03F31A0E3B68DA6009E03B686E
:103D70000022DA6005E03B6800229A603B6800227E
:103D8000DA60002318461C37BD465DF8047B704797
:103D9000003C01400038014080B487B000AF78603B
:103DA0007B68002B01D101234CE07B681B6803F08A
:103DB0001F037B6101227B6902FA03F33B61244B01
:103DC0001A683B69DB43224913400B60204B5A6859
:103DD0003B69DB431E4913404B607B681B6803F063
:103DE0000073002B2DD01A4B9A683B69DB431849AE
:103DF00013408B60164BDA683B69DB431449134070
:103E0000CB607B681B6803F0C063B3F1C06F18D14F
:103E1000104A7B699B08023352F82330FB607B69B0
:103E200003F003039B000F2202FA03F3DB43FA685B
:103E30001340FB6007497B699B080233FA6841F82D
:103E40002320002318461C37BD465DF8047B7047CD
:103E5000003C01400038014080B487B000AFF860FA
:103E60000B467A60FB720023FB75FB7A002B03D1B3
:103E7000FB687A685A6002E00123FB7500BFFB7D96
:103E800018461C37BD465DF8047B704780B483B08C
:103E900000AF786039607B68002B01D1012303E01B
:103EA0007B683A681A60002318460C37BD465DF8F7
:103EB000047B704780B584B000AF78607B681B6876
:103EC00003F01F03012202FA03F3FB600A4B5B6954
:103ED000FA681340BB60BB68002B09D0064AFB6838
:103EE00053617B685B68002B02D07B685B689847F6
:103EF00000BF1037BD4680BD003C014080B487B094
:103F000000AF786039607B681B6803F01F037B613A
:103F100001227B6902FA03F33B61074B5A693B6953
:103F20001A407B6922FA03F3FB60FB6818461C37D2
:103F3000BD465DF8047B7047003C014080B485B00D
:103F400000AF786039607B681B6803F01F030122B3
:103F500002FA03F3FB60044AFB68536100BF1437A5
:103F6000BD465DF8047B7047003C014080B485B0DD
:103F700000AF78607B681B6803F01F03012202FA20
:103F800003F3FB60044AFB68136100BF1437BD46AE
:103F90005DF8047B704700BF003C014080B586B0EF
:103FA00000AFF860B960C7E900230123FB75234B1C
:103FB0001B7E012B01D102233BE0204B01221A760C
:103FC0004CF2503000F0BEF90346FB75FB7D002B30
:103FD0002BD1FB68002B05D13B781946B86800F05F
:103FE00069FA16E0FB68012B05D13B881946B868D1
:103FF00000F03CFA0DE0FB68022B05D13B68194646
:10400000B86800F011FA04E0D7E90023B86800F0BE
:10401000D9F94CF2503000F095F90346FB75084B86
:104020001B69074A23F001031361044B00221A762F
:10403000FB7D18461837BD4680BD00BF40010020FB
:10404000003C024080B586B000AFF860B960C7E9B7
:1040500000230023FB75204B1B7E012B01D1022383
:1040600035E01D4B01221A761C4B1B691B4A43F09D
:1040700080731361194B1B69184A43F00073136175
:10408000154B03221A70144ABB685361FB68002B5E
:1040900005D13B781946B86800F00CFA16E0FB68C9
:1040A000012B05D13B881946B86800F0DFF90DE017
:1040B000FB68022B05D13B681946B86800F0B4F9DB
:1040C00004E0D7E90023B86800F07CF9FB7D1846CE
:1040D0001837BD4680BD00BF40010020003C0240B3
:1040E00080B582B000AF00237B604B4BDB6803F0F0
:1040F000F203002B20D0494B1B78DBB2012B07D1F8
:10410000464BDB687B60454B4FF0FF32DA600BE0DB
:10411000424B1B78DBB2022B03D1404B1B697B6007
:1041200002E03E4B5B697B6000F0E6F9786800F0E6
:1041300081F83A4B00221A70374BDB6803F0010319
:10414000002B4AD0344B0122DA60344B1B78DBB2AF
:10415000012B2DD1314B5B68013B304A53602F4B13
:104160005B68002B15D02D4BDB687B60786800F016
:1041700057F82A4BDB680133284AD360274BDB68AA
:104180007B60264B1B7ADBB21946786800F086FB11
:1041900023E04FF0FF337B60204A7B68D3601F4BE6
:1041A00000221A7000F0B8FC786800F039F814E0CA
:1041B0001A4B1B78DBB2022B07D100F0ADFC174B7A
:1041C0001B69184600F02CF804E0144B5B69184694
:1041D00000F026F8114B00221A70104B1B78DBB24E
:1041E000002B14D10C4B1B690B4A23F0FF03136106
:1041F000094B1B69084A23F080731361064B1B6946
:10420000054A23F000731361044B00221A7600BFA5
:104210000837BD4680BD00BF003C02404001002081
:1042200080B483B000AF786000BF0C37BD465DF846
:10423000047B704780B483B000AF786000BF0C3758
:10424000BD465DF8047B704780B483B000AF0023A7
:10425000FB710B4B1B69002B0BDA094B094A5A60A7
:10426000074B094A5A60064B1B69002B01DA0123F0
:10427000FB71FB7918460C37BD465DF8047B70472F
:10428000003C024023016745AB89EFCD80B400AF0D
:10429000054B1B69044A43F0004313610023184691
:1042A000BD465DF8047B7047003C024080B400AF1F
:1042B000094B5B6903F00103002B07D0064B074A4B
:1042C0009A60054B064A9A60002300E001231846D5
:1042D000BD465DF8047B7047003C02403B2A19084C
:1042E0007F6E5D4C80B400AF054B5B69044A43F0C0
:1042F0000103536100231846BD465DF8047B7047F7
:10430000003C024080B500AF074B1B78DBB2064A89
:1043100043F00203DBB213704CF2503000F012F89D
:104320000346184680BD00BF143C024080B400AF75
:10433000034BDB691846BD465DF8047B704700BF40
:104340004001002080B584B000AF78600023FB609E
:104350001A4B0022DA61FCF77BFEF86010E07B6804
:10436000B3F1FF3F0CD07B68002B07D0FCF770FE49
:104370000246FB68D31A7A689A4201D2032319E0F5
:104380000F4BDB6803F48033002BE8D10C4BDB6868
:1043900003F00103002B02D0094B0122DA60084B25
:1043A000DB6803F0F203002B03D000F0A5F8012333
:1043B00000E0002318461037BD4680BD40010020B4
:1043C000003C024080B485B000AFF860C7E900232C
:1043D000144B1B69134A23F440731361114B1B697F
:1043E000104A43F4407313610E4B1B690D4A43F0AE
:1043F00001031361FB683A681A60BFF36F8F00BF57
:10440000D7E900014FF000024FF000030A0000233B
:10441000F968043113460B6000BF1437BD465DF8E0
:10442000047B7047003C024080B483B000AF7860EA
:1044300039600D4B1B690C4A23F4407313610A4B1E
:104440001B69094A43F400731361074B1B69064A51
:1044500043F0010313617B683A681A6000BF0C37B0
:10446000BD465DF8047B7047003C024080B483B0D9
:1044700000AF78600B467B800D4B1B690C4A23F420
:10448000407313610A4B1B69094A43F4807313613B
:10449000074B1B69064A43F0010313617B687A8866
:1044A0001A8000BF0C37BD465DF8047B704700BF23
:1044B000003C024080B483B000AF78600B46FB70D4
:1044C0000C4B1B690B4A23F440731361094B094AD7
:1044D0001B691361074B1B69064A43F00103136113
:1044E0007B68FA781A7000BF0C37BD465DF8047B14
:1044F000704700BF003C024080B400AF274BDB6830
:1045000003F01003002B08D0254BDB6943F01003A8
:10451000234AD361214B1022DA60204BDB6803F081
:104520002003002B08D01E4BDB6943F008031C4A14
:10453000D3611A4B2022DA60184BDB6803F040038A
:10454000002B08D0164BDB6943F00403144AD361F7
:10455000124B4022DA60114BDB6803F08003002B22
:1045600008D00F4BDB6943F002030D4AD3610B4BBC
:104570008022DA60094BDB6803F00203002B08D0CD
:10458000074BDB6943F02003054AD361034B02224A
:10459000DA6000BFBD465DF8047B7047003C024016
:1045A0004001002080B584B000AF786039600123FD
:1045B000FB730023BB60314B1B7E012B01D1022317
:1045C00058E02E4B01221A764CF25030FFF7BAFE1B
:1045D0000346FB73FB7B002B48D13B684FF0FF3257
:1045E0001A607B681B68012B15D17B681B69DAB2E6
:1045F0007B685B681946104600F02CF94CF250308D
:10460000FFF7A0FE0346FB731D4B1B691C4A23F0FA
:104610000403136128E07B689B68BB601CE07B6837
:104620001B69DBB21946B86800F038F94CF250301B
:10463000FFF788FE0346FB73114B1B69104A23F0FA
:10464000FA031361FB7B002B03D03B68BA681A6046
:104650000AE0BB680133BB607B68DA687B689B68F3
:104660001344BA689A42DAD300F056FA034B002298
:104670001A76FB7B18461037BD4680BD40010020EE
:10468000003C024080B584B000AF78600023FB732B
:10469000254B1B7E012B01D1022340E0224B01223E
:1046A0001A76224B1B69214A43F0807313611F4B1A
:1046B0001B691E4A43F0007313611C4BF322DA603E
:1046C0007B681B68012B10D1174B02221A707B6884
:1046D0005B68154A13617B681B69DAB27B685B68AB
:1046E0001946104600F0B6F818E00F4B01221A7078
:1046F0007B68DB680C4A53607B689B680A4AD3601E
:104700007B681B69DAB2084B1A727B689A687B680F
:104710001B69DBB21946104600F0C0F8FB7B184657
:104720001037BD4680BD00BF40010020003C024064
:1047300080B584B000AF78600123FB73324B1B7EE1
:10474000012B01D102235BE02F4B01221A767B68FB
:104750001B6803F00103002B18D07B685B68012BFA
:104760000AD17B689A687B68DB681946104600F0BE
:10477000DDF80346FB7309E07B689A687B68DB68B9
:104780001946104600F0F4F80346FB737B681B687B
:1047900003F00203002B07D07B681B69DBB21846CD
:1047A00000F006F90346FB737B681B6803F0040303
:1047B000002B13D07B681B7E03F02003D8B27B68EC
:1047C0001B7E03F04003D9B27B681B7E23F07F037E
:1047D000DBB21A4600F006F90346FB737B681B68E0
:1047E00003F00803002B07D07B685B69DBB2184637
:1047F00000F028F90346FB73034B00221A76FB7B7B
:1048000018461037BD4680BD4001002080B582B0FB
:1048100000AF78607B680F221A6000F041F9034610
:104820001A467B689A6000F047F903461A467B688F
:104830001A6100F025F903461A467B681A7600F0E3
:104840005BF903461A467B685A6100BF0837BD46CC
:1048500080BD000080B483B000AF03463960FB71B7
:104860000D4B1B690C4A23F4407313610A4B1B69FF
:10487000094A43F004031361074B1A69FB791B02D1
:104880001343054A43F48033136100BF0C37BD4620
:104890005DF8047B704700BF003C024080B485B0E7
:1048A00000AF78600B46FB700023FB60FB78002BA9
:1048B00002D10023FB6010E0FB78012B03D14FF401
:1048C0008073FB6009E0FB78022B03D14FF4007387
:1048D000FB6002E04FF44073FB60134B1B69124A0C
:1048E00023F440731361104B1A690F49FB6813439B
:1048F0000B610D4B1B690C4A23F0F80313610A4B43
:104900001A697B68DB001343074A43F00203136113
:10491000054B1B69044A43F48033136100BF14370D
:10492000BD465DF8047B7047003C024080B584B012
:1049300000AF786039600023FB734CF25030FFF712
:1049400001FD0346FB73FB7B002B0AD1074B1B8841
:104950009AB27B689BB2DB439BB2044913409BB283
:104960000B80FB7B18461037BD4680BD163C0240CD
:1049700080B584B000AF786039600023FB734CF2DF
:104980005030FFF7DFFC0346FB73FB7B002B08D1A5
:10499000064B1B889AB27B689BB2044913439BB2B7
:1049A0000B80FB7B18461037BD4680BD163C02408D
:1049B00080B584B000AF0346FB710023FB734CF25B
:1049C0005030FFF7BFFC0346FB73FB7B002B02D18B
:1049D000034AFB791370FB7B18461037BD4680BD38
:1049E000153C024080B584B000AF0346FB710B4616
:1049F000BB7113467B71FF23FB730023BB734CF227
:104A00005030FFF79FFC0346BB73BB7B002B11D1DB
:104A10000B4B1B78DBB203F01F03FB73BA79FB7BF4
:104A20001343DAB27B791343DAB20549FB791343B6
:104A3000DBB20B70BB7B18461037BD4680BD00BF94
:104A4000143C024080B483B000AF0346FB710B4BB3
:104A50001B78DBB2094A23F00C03DBB21370074B5F
:104A60001B78DAB20549FB791343DBB20B700023E4
:104A700018460C37BD465DF8047B7047143C024075
:104A800080B400AF054B5B69DBB223F01F03DBB2E0
:104A90001846BD465DF8047B704700BF003C0240ED
:104AA00080B400AF034B1B889BB21846BD465DF82F
:104AB000047B7047163C024080B483B000AFAA2349
:104AC000FB710C4B1B78DBB2CC2B02D1CC23FB71DE
:104AD00009E0084B1B78DBB2AA2B02D1AA23FB7199
:104AE00001E05523FB71FB7918460C37BD465DF894
:104AF000047B7047153C024080B400AF054B1B7827
:104B0000DBB203F00C03DBB21846BD465DF8047B54
:104B1000704700BF143C024080B400AF204B1B68BC
:104B200003F40073002B17D01D4B1B681C4A23F4A1
:104B3000007313601A4B1B68194A43F40063136037
:104B4000174B1B68164A23F400631360144B1B6851
:104B5000134A43F400731360114B1B6803F4806322
:104B6000002B17D00E4B1B680D4A23F48063136093
:104B70000B4B1B680A4A43F480531360084B1B68B5
:104B8000074A23F480531360054B1B68044A43F41F
:104B90008063136000BFBD465DF8047B704700BFB3
:104BA000003C024080B489B000AF786039600023D7
:104BB0007B6100233B610023BB610023FB616BE150
:104BC0000122FB6902FA03F37B613B681B687A6987
:104BD00013403B613A697B699A4240F05A813B68D5
:104BE0005B68012B0BD03B685B68022B07D03B68EE
:104BF0005B68112B03D03B685B68122B30D17B685C
:104C00009B68BB61FB695B00032202FA03F3DB4391
:104C1000BA691340BB613B68DA68FB695B0002FA62
:104C200003F3BA691343BB617B68BA699A607B6816
:104C30005B68BB610122FB6902FA03F3DB43BA69DB
:104C40001340BB613B685B681B0903F00102FB6911
:104C500002FA03F3BA691343BB617B68BA695A600D
:104C60007B68DB68BB61FB695B00032202FA03F32C
:104C7000DB43BA691340BB613B689A68FB695B0020
:104C800002FA03F3BA691343BB617B68BA69DA605D
:104C90003B685B68022B03D03B685B68122B23D117
:104CA000FB69DA087B68083253F82230BB61FB6984
:104CB00003F007039B000F2202FA03F3DB43BA69F8
:104CC0001340BB613B681A69FB6903F007039B0053
:104CD00002FA03F3BA691343BB61FB69DA087B6824
:104CE0000832B96943F822107B681B68BB61FB6915
:104CF0005B00032202FA03F3DB43BA691340BB6192
:104D00003B685B6803F00302FB695B0002FA03F394
:104D1000BA691343BB617B68BA691A603B685B6818
:104D200003F08053002B00F0B4800023FB60604B45
:104D30005B6C5F4A43F4804353645D4B5B6C03F4EC
:104D40008043FB60FB685B4AFB699B08023352F8B7
:104D50002330BB61FB6903F003039B000F2202FABF
:104D600003F3DB43BA691340BB617B68524A934249
:104D70002BD07B68514A934225D07B68504A93429E
:104D80001FD07B684F4A934219D07B684E4A9342AA
:104D900013D07B684D4A93420DD07B684C4A9342B6
:104DA00007D07B684B4A934201D107230EE00823CA
:104DB0000CE006230AE0052308E0042306E00323B1
:104DC00004E0022302E0012300E00023FA6902F07C
:104DD000030292009340BA691343BB613549FB69F2
:104DE0009B080233BA6941F823203B4B1B68BB6127
:104DF0003B69DB43BA691340BB613B685B6803F402
:104E00008033002B03D0BA693B691343BB61324A3C
:104E1000BB691360304B5B68BB613B69DB43BA69BC
:104E20001340BB613B685B6803F40033002B03D085
:104E3000BA693B691343BB61274ABB695360264B80
:104E40009B68BB613B69DB43BA691340BB613B684C
:104E50005B6803F48013002B03D0BA693B691343EA
:104E6000BB611D4ABB6993601B4BDB68BB613B693F
:104E7000DB43BA691340BB613B685B6803F4001312
:104E8000002B03D0BA693B691343BB61124ABB696B
:104E9000D360FB690133FB61FB690F2B7FF690AE9A
:104EA00000BF00BF2437BD465DF8047B704700BFDC
:104EB0000038024000380140000002400004024077
:104EC00000080240000C02400010024000140240A2
:104ED00000180240001C0240003C014080B487B032
:104EE00000AF7860396000233B610023FB60002342
:104EF000BB6000237B61CDE001227B6902FA03F3F2
:104F00003B613A683B691340FB60FA683B699A422F
:104F100040F0BD80654A7B699B08023352F823301C
:104F2000BB607B6903F003039B000F2202FA03F3CB
:104F3000BA681340BB607B685D4A93422BD07B68A4
:104F40005C4A934225D07B685B4A93421FD07B68C2
:104F50005A4A934219D07B68594A934213D07B68CE
:104F6000584A93420DD07B68574A934207D07B68DA
:104F7000564A934201D107230EE008230CE0062392
:104F80000AE0052308E0042306E0032304E00223EB
:104F900002E0012300E000237A6902F0030292009C
:104FA0009340BA689A4232D1494B1A68FB68DB4396
:104FB000474913400B60464B5A68FB68DB43444942
:104FC00013404B60424B9A68FB68DB4340491340F7
:104FD0008B603F4BDA68FB68DB433D491340CB6095
:104FE0007B6903F003039B000F2202FA03F3BB600B
:104FF0002E4A7B699B08023352F82310BB68DA43C0
:105000002A487B699B080A40023340F823207B68CA
:105010001A687B695B00032101FA03F3DB431A4042
:105020007B681A607B69DA087B68083253F82210C3
:105030007B6903F007039B000F2202FA03F3DB43B3
:105040007A69D20819407B68083243F822107B68DD
:10505000DA687B695B00032101FA03F3DB431A4042
:105060007B68DA607B685A6801217B6901FA03F387
:10507000DB431A407B685A607B689A687B695B00F7
:10508000032101FA03F3DB431A407B689A607B69D2
:1050900001337B617B690F2B7FF62EAF00BF00BF12
:1050A0001C37BD465DF8047B704700BF00380140E7
:1050B000000002400004024000080240000C0240D0
:1050C000001002400014024000180240001C024080
:1050D000003C014080B485B000AF78600B467B8017
:1050E0007B681A697B881340002B02D00123FB7375
:1050F00001E00023FB73FB7B18461437BD465DF8C7
:10510000047B704780B483B000AF78600B467B802F
:1051100013467B707B78002B03D07A887B689A617A
:1051200003E07B881A047B689A6100BF0C37BD4698
:105130005DF8047B704780B483B000AF78600B46A5
:105140007B807B685A697B881A407B889A4204D1AD
:105150007B881A047B689A6102E07A887B689A618E
:1051600000BF0C37BD465DF8047B704780B485B046
:1051700000AF78600B467B804FF48033FB607A8809
:10518000FB681343FB60FA687B68DA617A887B68A6
:10519000DA61FA687B68DA617B68DB69FB607B68EF
:1051A000DB6903F48033002B01D0002300E00123EE
:1051B00018461437BD465DF8047B704780B582B051
:1051C00000AF0346FB80084B5A69FB881340002B55
:1051D00006D0054AFB885361FB88184600F006F8A4
:1051E00000BF0837BD4680BD003C014080B483B09D
:1051F00000AF0346FB8000BF0C37BD465DF8047B63
:105200007047000080B400AF084B1B6A074A43F0A8
:1052100080531362054B1B6A044A23F080531362C8
:1052200000BFBD465DF8047B704700BF00380240F8
:1052300080B400AF034B01221A6000BFBD465DF889
:10524000047B704720000E4280B400AF034B002265
:105250001A6000BFBD465DF8047B704720000E4217
:1052600080B483B000AF78602B4B1B6823F0E00262
:105270007B681B68284913430B60284B5B68274AEF
:1052800023F480335360254B1B68244A23F4803376
:105290001360224B9B68214A23F4803393601F4B99
:1052A000DB681E4A23F48033D3607B685B6803F4B9
:1052B0008033002B05D0194B1B68184A43F4803308
:1052C00013607B685B6803F40033002B05D0134B3D
:1052D0005B68124A43F4803353607B685B6803F079
:1052E0000103002B05D00D4B9B680C4A43F480331F
:1052F00093607B685B6803F00203002B05D0074BCB
:10530000DB68064A43F48033D36000BF0C37BD46E8
:105310005DF8047B704700BF00700040003C014016
:1053200080B400AF034B01221A6000BFBD465DF898
:10533000047B704710000E4280B400AF034B002284
:105340001A6000BFBD465DF8047B704710000E4236
:1053500080B483B000AF7860054B5A6804497B681D
:1053600013434B6000BF0C37BD465DF8047B7047AC
:105370000070004080B483B000AF7860064B5A687C
:105380007B68DB43044913404B6000BF0C37BD46CC
:105390005DF8047B704700BF0070004080B483B0AC
:1053A00000AF78600B46FB70094B1B69084A23F07D
:1053B00004031361FB78012B01D130BF02E040BF31
:1053C00020BF20BF00BF0C37BD465DF8047B70478F
:1053D00000ED00E080B483B000AF78600B46FB7056
:1053E000104B1B6823F003020E497B6813430B60CC
:1053F0000D4B1B690C4A43F004031361FB78012B2E
:1054000001D130BF02E040BF20BF20BF064B1B6967
:10541000054A23F00403136100BF0C37BD465DF855
:10542000047B70470070004000ED00E080B400AFE6
:10543000084B1B68074A43F002031360064B1B69C5
:10544000054A43F00403136130BF00BFBD465DF859
:10545000047B70470070004000ED00E080B500AFB5
:10546000064B5B6903F48033002B05D000F008F88D
:10547000024B4FF480325A6100BF80BD003C0140B6
:1054800080B400AF00BFBD465DF8047B70470000EC
:1054900080B400AF054B1B69044A43F0020313615B
:1054A00000BFBD465DF8047B704700BF00ED00E023
:1054B00080B400AF054B1B69044A23F0020313615B
:1054C00000BFBD465DF8047B704700BF00ED00E003
:1054D00080B400AF054B1B69044A43F0100313610D
:1054E00000BFBD465DF8047B704700BF00ED00E0E3
:1054F00080B400AF054B1B69044A23F0100313610D
:1055000000BFBD465DF8047B704700BF00ED00E0C2
:1055100080B582B000AF00237B600E4B01221A6081
:10552000FBF796FD786009E0FBF792FD02467B6889
:10553000D31AB3F57A7F01D9032306E0064B5B68E3
:1055400003F00803082BEFD1002318460837BD46A7
:1055500080BD00BFA4000E420070004080B582B044
:1055600000AF00237B600E4B00221A60FBF770FD3A
:10557000786009E0FBF76CFD02467B68D31AB3F54F
:105580007A7F01D9032306E0064B5B6803F008032A
:10559000082BEFD0002318460837BD4680BD00BF5A
:1055A000A4000E420070004080B400AF034B012203
:1055B0001A6000BFBD465DF8047B704724000E42B0
:1055C00080B400AF034B00221A6000BFBD465DF8F7
:1055D000047B704724000E4280B400AF044B1B686C
:1055E00003F480431846BD465DF8047B704700BF56
:1055F0000070004080B586B000AF786000237B610A
:1056000000233B611A4B1B6C194A43F0805313640F
:10561000174B1B6C03F080533B613B690023FB601D
:10562000144B1B6823F4804212497B6813430B60C0
:10563000104B1B6803F48043FB60FB68FBF708FD1D
:10564000786109E0FBF704FD02467B69D31AB3F5E4
:105650007A7F01D9032307E0064B5B6803F480439C
:10566000B3F5804FEED1002318461837BD4680BDF4
:10567000003802400070004080B400AF002318469C
:10568000BD465DF8047B704780B586B000AF78609A
:105690007B68002B01D101235EE27B681B6803F06D
:1056A0000103002B75D0884B9B6803F00C03042B7F
:1056B0000CD0854B9B6803F00C03082B12D1824B56
:1056C0005B6803F48003B3F5800F0BD17E4B1B683E
:1056D00003F40033002B5BD07B685B68002B57D151
:1056E000012339E27B685B68B3F5803F06D1764BD6
:1056F0001B68754A43F4803313601DE07B685B6868
:10570000B3F5A02F0CD1704B1B686F4A43F4802374
:1057100013606D4B1B686C4A43F4803313600BE0DD
:10572000694B1B68684A23F480331360664B1B681F
:10573000654A23F4802313607B685B68002B13D0D9
:10574000FBF786FC386108E0FBF782FC02463B6908
:10575000D31A642B01D90323FEE15B4B1B6803F4CE
:105760000033002BF0D014E0FBF772FC386108E046
:10577000FBF76EFC02463B69D31A642B01D9032365
:10578000EAE1514B1B6803F40033002BF0D100E039
:1057900000BF7B681B6803F00203002B63D04A4BF9
:1057A0009B6803F00C03002B0BD0474B9B6803F066
:1057B0000C03082B1CD1444B5B6803F48003002BC3
:1057C00016D1414B1B6803F00203002B05D07B6808
:1057D000DB68012B01D00123BEE13B4B1B6823F0AA
:1057E000F8027B681B69DB00374913430B603AE022
:1057F0007B68DB68002B20D0344B01221A60FBF75A
:1058000027FC386108E0FBF723FC02463B69D31A0A
:10581000022B01D903239FE12B4B1B6803F00203EA
:10582000002BF0D0284B1B6823F0F8027B681B6923
:10583000DB00254913430B6015E0244B00221A605E
:10584000FBF706FC386108E0FBF702FC02463B6907
:10585000D31A022B01D903237EE11B4B1B6803F0F3
:105860000203002BF0D17B681B6803F00803002BB8
:1058700036D07B685B69002B16D0154B01221A606D
:10588000FBF7E6FB386108E0FBF7E2FB02463B6909
:10589000D31A022B01D903235EE10B4B5B6F03F09C
:1058A0000203002BF0D01BE0094B00221A60FBF72B
:1058B000CFFB38610EE0FBF7CBFB02463B69D31A06
:1058C000022B07D9032347E100380240000047427A
:1058D000800E4742884B5B6F03F00203002BEAD136
:1058E0007B681B6803F00403002B00F09780002303
:1058F000FB75814B1B6C03F08053002B0FD10023F1
:10590000BB607D4B1B6C7C4A43F0805313647A4B25
:105910001B6C03F08053BB60BB680123FB75774BA6
:105920001B6803F48073002B18D1744B1B68734AF7
:1059300043F480731360FBF78BFB386108E0FBF7DF
:1059400087FB02463B69D31A022B01D9032303E1EB
:105950006A4B1B6803F48073002BF0D07B689B6854
:10596000012B06D1644B1B6F634A43F0010313679D
:105970001CE07B689B68052B0CD15F4B1B6F5E4A5C
:1059800043F0040313675C4B1B6F5B4A43F0010356
:1059900013670BE0584B1B6F574A23F00103136743
:1059A000554B1B6F544A23F0040313677B689B68B5
:1059B000002B15D0FBF74CFB38610AE0FBF748FBE6
:1059C00002463B69D31A41F28832934201D903233C
:1059D000C2E0494B1B6F03F00203002BEED014E032
:1059E000FBF736FB38610AE0FBF732FB02463B6906
:1059F000D31A41F28832934201D90323ACE03E4BE3
:105A00001B6F03F00203002BEED1FB7D012B05D1B0
:105A1000394B1B6C384A23F0805313647B689B69B5
:105A2000002B00F09880344B9B6803F00C03082B8C
:105A30005CD07B689B69022B41D1314B00221A60FC
:105A4000FBF706FB386108E0FBF702FB02463B6907
:105A5000D31A022B01D903237EE0274B1B6803F0E6
:105A60000073002BF0D17B68DA697B681B6A1A43EC
:105A70007B685B6A9B011A437B689B6A5B08013BFE
:105A80001B041A437B68DB6A1B061B4913434B60EC
:105A90001B4B01221A60FBF7DBFA386108E0FBF7C9
:105AA000D7FA02463B69D31A022B01D9032353E0EC
:105AB000114B1B6803F00073002BF0D04BE0104B30
:105AC00000221A60FBF7C4FA386108E0FBF7C0FA5D
:105AD00002463B69D31A022B01D903233CE0064B53
